:020000040800F2
:1000000000000220392A0008CD290008D92900085B
:10001000DF290008E5290008EB290008000000009E
:10002000000000000000000000000000F1290008AE
:10003000FD29000800000000092A0008152A000810
:10004000892A0008892A0008892A0008892A0008C4
:10005000892A0008892A0008892A0008892A0008B4
:10006000892A0008892A0008892A0008892A0008A4
:10007000892A0008892A0008892A0008892A000894
:10008000892A0008892A0008892A0008892A000884
:10009000892A0008892A0008892A0008892A000874
:1000A000892A0008892A0008892A0008892A000864
:1000B000892A0008892A0008892A0008892A000854
:1000C000892A0008892A0008892A0008892A000844
:1000D000892A0008892A0008892A0008892A000834
:1000E000892A0008892A0008892A0008892A000824
:1000F000892A0008892A0008892A0008892A000814
:10010000892A0008892A0008892A0008892A000803
:10011000892A0008892A0008892A0008892A0008F3
:10012000892A0008892A0008892A0008892A0008E3
:10013000892A0008892A0008892A0008892A0008D3
:10014000892A0008892A0008892A0008892A0008C3
:10015000892A0008892A0008892A0008892A0008B3
:10016000892A0008892A0008892A0008892A0008A3
:10017000892A0008892A0008892A0008000000004E
:08018000892A0008892A000801
:1001880053B94AB9002908BF00281CBF4FF0FF31F6
:100198004FF0FF3000F00CB8ADF1080C6DE904CE5B
:1001A80002F070FCDDF804E0DDE9022304B07047DA
:1001B800704700BF10B5054C237833B9044B13B111
:1001C8000448AFF300800123237010BD24000020F1
:1001D80000000000A42D000808B5034B1BB103491B
:1001E8000348AFF3008008BD00000000280000208D
:1001F800A42D000880B500AF0E4B1B680D4A43F4D0
:10020800007313600B4B1B680A4A43F48063136046
:10021800084B1B68074A43F480731360032000F0FF
:100228002BF9002000F008F802F0A6FB002318467E
:1002380080BD00BF003C024080B582B000AF78604E
:10024800124B1A68124B1B7819464FF47A73B3FB9A
:10025800F1F3B2FBF3F3184600F035F90346002B2F
:1002680001D001230EE07B680F2B0AD800227968A1
:100278004FF0FF3000F00BF9064A7B68136000234B
:1002880000E0012318460837BD4680BD2000002045
:10029800040000200000002080B400AF054B1B784C
:1002A8001A46054B1B681344034A136000BFBD463A
:1002B80080BC7047040000204000002080B400AFDC
:1002C800024B1B681846BD4680BC704740000020A2
:1002D80080B584B000AF7860FFF7F0FFB8607B6846
:1002E800FB60FB68B3F1FF3F05D00A4B1B781A4649
:1002F800FB681344FB6000BFFFF7E0FF0246BB68E2
:10030800D31AFA689A42F7D800BF00BF1037BD4623
:1003180080BD00BF0400002080B485B000AF7860C5
:100328007B6803F00703FB600C4BDB68BB60BA68B3
:100338004FF6FF031340BB60FB681A02BB68134308
:1003480043F0BF6343F40033BB60044ABB68D36027
:1003580000BF1437BD4680BC704700BF00ED00E009
:1003680080B400AF044BDB681B0A03F00703184690
:10037800BD4680BC704700BF00ED00E080B483B08C
:1003880000AF03463960FB7197F90730002B0ADB91
:100398003B68DAB20C4997F907301201D2B20B4424
:1003A80083F800230AE03B68DAB20849FB7903F0D6
:1003B8000F03043B1201D2B20B441A7600BF0C376C
:1003C800BD4680BC704700BF00E100E000ED00E0E2
:1003D80080B489B000AFF860B9607A60FB6803F058
:1003E8000703FB61FB69C3F10703042B28BF042340
:1003F800BB61FB690433062B02D9FB69033B00E0B0
:1004080000237B614FF0FF32BB6902FA03F3DA4342
:10041800BB681A407B699A404FF0FF317B6901FA4B
:1004280003F3D9437B680B40134318462437BD4672
:1004380080BC704780B582B000AF78607B68013BB4
:10044800B3F1807F01D301230FE00A4A7B68013BA7
:1004580053600F214FF0FF30FFF790FF054B00224C
:100468009A60044B07221A60002318460837BD46D5
:1004780080BD00BF10E000E080B582B000AF7860BA
:100488007868FFF749FF00BF0837BD4680BD80B5D3
:1004980086B000AF0346B9607A60FB7300237B61C6
:1004A800FFF75EFF78617A68B9687869FFF790FFAF
:1004B800024697F90F3011461846FFF75FFF00BF55
:1004C8001837BD4680BD80B582B000AF78607868C7
:1004D800FFF7B0FF034618460837BD4680BD000049
:1004E80080B489B000AF7860396000237B61002355
:1004F8003B610023BB610023FB616BE10122FB69C7
:1005080002FA03F37B613B681B687A6913403B611D
:100518003A697B699A4240F05A813B685B68012BD3
:100528000BD03B685B68022B07D03B685B68112BDC
:1005380003D03B685B68122B30D17B689B68BB613A
:10054800FB695B00032202FA03F3DB43BA69134039
:10055800BB613B68DA68FB695B0002FA03F3BA69BE
:100568001343BB617B68BA699A607B685B68BB614F
:100578000122FB6902FA03F3DB43BA691340BB614A
:100588003B685B681B0903F00102FB6902FA03F38D
:10059800BA691343BB617B68BA695A607B68DB68D8
:1005A800BB61FB695B00032202FA03F3DB43BA6910
:1005B8001340BB613B689A68FB695B0002FA03F36E
:1005C800BA691343BB617B68BA69DA603B685B68E8
:1005D800022B03D03B685B68122B23D1FB69DA0836
:1005E8007B68083253F82230BB61FB6903F00703CC
:1005F8009B000F2202FA03F3DB43BA691340BB6185
:100608003B681A69FB6903F007039B0002FA03F3CE
:10061800BA691343BB61FB69DA087B680832B969B8
:1006280043F822107B681B68BB61FB695B000322EF
:1006380002FA03F3DB43BA691340BB613B685B68AA
:1006480003F00302FB695B0002FA03F3BA69134380
:10065800BB617B68BA691A603B685B6803F08053CA
:10066800002B00F0B4800023FB605F4B5B6C5E4A9C
:1006780043F4804353645C4B5B6C03F48043FB603E
:10068800FB685A4AFB699B08023352F82330BB6166
:10069800FB6903F003039B000F2202FA03F3DB4319
:1006A800BA691340BB617B68514A93422BD07B687F
:1006B800504A934225D07B684F4A93421FD07B68AB
:1006C8004E4A934219D07B684D4A934213D07B68B7
:1006D8004C4A93420DD07B684B4A934207D07B68C3
:1006E8004A4A934201D107230EE008230CE006236F
:1006F8000AE0052308E0042306E0032304E00223BC
:1007080002E0012300E00023FA6902F003029200EC
:100718009340BA691343BB613449FB699B080233B0
:10072800BA6941F823203A4B1B68BB613B69DB433C
:10073800BA691340BB613B685B6803F48033002BE4
:1007480003D0BA693B691343BB61314ABB69136083
:100758002F4B5B68BB613B69DB43BA691340BB61E4
:100768003B685B6803F40033002B03D0BA693B692C
:100778001343BB61264ABB695360254B9B68BB6129
:100788003B69DB43BA691340BB613B685B6803F4B0
:100798008013002B03D0BA693B691343BB611C4A21
:1007A800BB6993601A4BDB68BB613B69DB43BA6981
:1007B8001340BB613B685B6803F40013002B03D054
:1007C800BA693B691343BB61114ABB69D360FB69D2
:1007D8000133FB61FB690F2B7FF690AE00BF00BFB2
:1007E8002437BD4680BC70470038024000380140BD
:1007F800000002400004024000080240000C0240D1
:10080800001002400014024000180240001C024080
:10081800003C014080B483B000AF78600B467B8019
:1008280013467B707B78002B03D07A887B689A61AB
:1008380003E07B881A047B689A6100BF0C37BD46C9
:1008480080BC704780B586B000AF78607B68002BAD
:1008580001D101235BE27B681B6803F00103002BD5
:1008680075D0A34B9B6803F00C03042B0CD0A04B52
:100878009B6803F00C03082B12D19D4B5B6803F4B3
:100888008003B3F5800F0BD1994B1B6803F4003339
:10089800002B5BD07B685B68002B57D1012336E2C5
:1008A8007B685B68B3F5803F06D1914B1B68904A23
:1008B80043F4803313601DE07B685B68B3F5A02FB9
:1008C8000CD18B4B1B688A4A43F480231360884BF6
:1008D8001B68874A43F4803313600BE0844B1B6822
:1008E800834A23F480331360814B1B68804A23F4C6
:1008F800802313607B685B68002B13D0FFF7DEFC56
:10090800386108E0FFF7DAFC02463B69D31A642B2A
:1009180001D90323FBE1764B1B6803F40033002B5A
:10092800F0D014E0FFF7CAFC386108E0FFF7C6FC16
:1009380002463B69D31A642B01D90323E7E16C4BC8
:100948001B6803F40033002BF0D100E000BF7B6884
:100958001B6803F00203002B63D0654B9B6803F010
:100968000C03002B0BD0624B9B6803F00C03082B85
:100978001CD15F4B5B6803F48003002B16D15C4BE2
:100988001B6803F00203002B05D07B68DB68012B92
:1009980001D00123BBE1564B1B6823F0F8027B68AA
:1009A8001B69DB00524913430B603AE07B68DB6844
:1009B800002B20D04F4B01221A60FFF77FFC3861D3
:1009C80008E0FFF77BFC02463B69D31A022B01D9EA
:1009D80003239CE1464B1B6803F00203002BF0D075
:1009E800434B1B6823F0F8027B681B69DB00404916
:1009F80013430B6015E03F4B00221A60FFF75EFCC3
:100A0800386108E0FFF75AFC02463B69D31A022B0B
:100A180001D903237BE1364B1B6803F00203002B4B
:100A2800F0D17B681B6803F00803002B30D07B688B
:100A38005B69002B16D0304B01221A60FFF73EFC91
:100A4800386108E0FFF73AFC02463B69D31A022BEB
:100A580001D903235BE1264B5B6F03F00203002BF4
:100A6800F0D015E0244B00221A60FFF727FC38610C
:100A780008E0FFF723FC02463B69D31A022B01D991
:100A8800032344E11A4B5B6F03F00203002BF0D100
:100A98007B681B6803F00403002B00F0A080002390
:100AA800FB75134B1B6C03F08053002B0FD10023F5
:100AB800BB600F4B1B6C0E4A43F0805313640C4B06
:100AC8001B6C03F08053BB60BB680123FB750B4BA9
:100AD8001B6803F48073002B21D1084B1B68074A5D
:100AE80043F480731360FFF7E9FB386111E000BF3E
:100AF8000038024000004742800E47420070004024
:100B0800FFF7DCFB02463B69D31A022B01D903230A
:100B1800FDE0814B1B6803F48073002BF0D07B68E9
:100B28009B68012B06D17D4B1B6F7C4A43F0010368
:100B380013671CE07B689B68052B0CD1774B1B6FF8
:100B4800764A43F004031367744B1B6F734A43F0F0
:100B5800010313670BE0714B1B6F704A23F001030D
:100B680013676E4B1B6F6D4A23F0040313677B6892
:100B78009B68002B15D0FFF7A1FB38610AE0FFF74F
:100B88009DFB02463B69D31A41F28832934201D950
:100B98000323BCE0614B1B6F03F00203002BEED074
:100BA80014E0FFF78BFB38610AE0FFF787FB02468A
:100BB8003B69D31A41F28832934201D90323A6E054
:100BC800564B1B6F03F00203002BEED1FB7D012B6C
:100BD80005D1524B1B6C514A23F0805313647B6838
:100BE8009B69002B00F092804C4B9B6803F00C0330
:100BF800082B5CD07B689B69022B41D1484B0022B3
:100C08001A60FFF75BFB386108E0FFF757FB024605
:100C18003B69D31A022B01D9032378E03F4B1B68A9
:100C280003F00073002BF0D17B68DA697B681B6ADC
:100C38001A437B685B6A9B011A437B689B6A5B0863
:100C4800013B1B041A437B68DB6A1B0633491343C9
:100C58004B60334B01221A60FFF730FB386108E024
:100C6800FFF72CFB02463B69D31A022B01D9032359
:100C78004DE02A4B1B6803F00073002BF0D045E0D1
:100C8800274B00221A60FFF719FB386108E0FFF7CD
:100C980015FB02463B69D31A022B01D9032336E020
:100CA8001E4B1B6803F00073002BF0D12EE07B680D
:100CB8009B69012B01D1012329E0184B9B68FB603C
:100CC800FB6803F480027B68DB699A421CD1FB68ED
:100CD80003F03F027B681B6A9A4215D1FA6847F60F
:100CE800C07313407A68526A93420DD1FB6803F4CB
:100CF80040327B689B6A9A4206D1FB6803F07062B7
:100D08007B68DB6A9A4201D0012300E00023184681
:100D18001837BD4680BD00BF007000400038024053
:100D28006000474280B584B000AF786039607B6866
:100D3800002B01D10123CCE0684B1B6803F00F03A3
:100D48003A689A420CD9654B3A68D2B21A70634B2A
:100D58001B6803F00F033A689A4201D00123B8E0F8
:100D68007B681B6803F00203002B20D07B681B689C
:100D780003F00403002B05D0594B9B68584A43F4F1
:100D8800E05393607B681B6803F00803002B05D0D1
:100D9800534B9B68524A43F460439360504B9B68A3
:100DA80023F0F0027B689B684D4913438B607B6896
:100DB8001B6803F00103002B44D07B685B68012BA0
:100DC80007D1474B1B6803F40033002B19D10123CB
:100DD8007FE07B685B68022B03D07B685B68032B32
:100DE80007D13F4B1B6803F00073002B09D1012387
:100DF8006FE03B4B1B6803F00203002B01D101237A
:100E080067E0374B9B6823F003027B685B683449D3
:100E180013438B60FFF752FAF8600AE0FFF74EFAC7
:100E28000246FB68D31A41F28832934201D9032360
:100E38004FE02B4B9B6803F00C027B685B689B00C0
:100E48009A42EBD1254B1B6803F00F033A689A428C
:100E58000CD2224B3A68D2B21A70204B1B6803F0AE
:100E68000F033A689A4201D0012332E07B681B687D
:100E780003F00403002B08D0194B9B6823F4E052BD
:100E88007B68DB68164913438B607B681B6803F03B
:100E98000803002B09D0124B9B6823F460427B683F
:100EA8001B69DB000E4913438B6000F021F80246F2
:100EB8000B4B9B681B0903F00F030A49CB5C22FA12
:100EC80003F3094A1360094B1B681846FFF7B4F986
:100ED800002318461037BD4680BD00BF003C0240C5
:100EE8000038024068D600082000002000000020DA
:100EF8002DE9B04384B000AF00237B600023FB6082
:100F080000233B600023BB60674B9B6803F00C0326
:100F1800082B0DD0082B00F2BD80002B02D0042B2B
:100F280003D0B7E0614BBB60B7E0614BBB60B4E096
:100F38005D4B5B6803F03F037B605B4B5B6803F4CE
:100F48008003002B4DD0584B5B689B091A464FF025
:100F5800000340F2FF104FF0000102EA000803EA24
:100F68000109404649464FF000024FF000034B018B
:100F780043EAD063420110461946B0EB080061EB22
:100F880009014FF000024FF000038B0143EA906320
:100F98008201121A63EB01034FF000004FF00001C9
:100FA800D90041EA5271D00002460B4612EB080202
:100FB80043EB09034FF000004FF00001590241EAEA
:100FC800D251500202460B46104619467B681A4613
:100FD8004FF00003FFF7D4F802460B461346FB60B8
:100FE8004AE0314B5B689B091A464FF0000340F218
:100FF800FF104FF0000102EA000403EA0105204651
:1010080029464FF000024FF000034B0143EAD0633A
:10101800420110461946001B61EB05014FF0000222
:101028004FF000038B0143EA90638201121A63EBCD
:1010380001034FF000004FF00001D90041EA52715E
:10104800D00002460B46121945EB03034FF000008F
:101058004FF00001990241EA9251900202460B4674
:10106800104619467B681A464FF00003FFF788F8C8
:1010780002460B461346FB600B4B5B681B0C03F0E8
:10108800030301335B003B60FA683B68B2FBF3F390
:10109800BB6002E0054BBB6000BFBB681846103759
:1010A800BD46BDE8B08300BF003802400024F4000C
:1010B80000127A0080B582B000AF78607B68002BA0
:1010C80001D1012356E07B6800229A627B6893F87D
:1010D8005130DBB2002B06D17B68002283F8502008
:1010E800786801F001FC7B68022283F851207B6854
:1010F8001B681A687B681B6822F040021A607B68CC
:101108005A687B689B681A437B68DB681A437B686C
:101118001B691A437B685B691A437B689B6903F404
:1011280000731A437B68DB691A437B681B6A42EACF
:1011380003017B689A6A7B681B680A431A607B68AC
:101148009B691B0C03F004017B685A6A7B681B6867
:101158000A435A607B681B68DA697B681B6822F45B
:101168000062DA617B6800225A657B68012283F895
:101178005120002318460837BD4680BD80B588B089
:1011880000AFF860B9603B601346FB800023FB7733
:10119800FB6893F85030012B01D102231EE1FB6854
:1011A800012283F85020FFF789F8B861FB88FB8299
:1011B800FB6893F85130DBB2012B02D00223FB7796
:1011C80003E1BB68002B02D0FB88002B02D101236E
:1011D800FB77FAE0FB68032283F85120FB680022C2
:1011E8005A65FB68BA681A63FB68FA889A86FB68CE
:1011F800FA88DA86FB6800229A63FB6800229A87DD
:10120800FB680022DA87FB6800225A64FB68002228
:101218001A64FB689B68B3F5004F07D1FB681B682D
:101228001A68FB681B6842F480421A60FB681B68F6
:101238001B6803F04003402B07D0FB681B681A6843
:10124800FB681B6842F040021A60FB68DB68B3F574
:10125800006F4BD1FB685B68002B02D0FB8A012B27
:101268003ED1FB681B6B1A88FB681B68DA60FB6859
:101278001B6B9A1CFB681A63FB68DB8E9BB2013BF5
:101288009AB2FB68DA862BE0FB681B689B6803F060
:101298000203022B12D1FB681B6B1A88FB681B68C0
:1012A800DA60FB681B6B9A1CFB681A63FB68DB8EB1
:1012B8009BB2013B9AB2FB68DA8611E0FEF7FEFFAB
:1012C8000246BB69D31A3A689A4203D83B68B3F11D
:1012D800FF3F02D13B68002B02D10323FB7774E068
:1012E800FB68DB8E9BB2002BCED14CE0FB685B68C1
:1012F800002B02D0FB8A012B40D1FB681A6BFB68DC
:101308001B680C3312781A70FB681B6B5A1CFB683D
:101318001A63FB68DB8E9BB2013B9AB2FB68DA86E4
:101328002CE0FB681B689B6803F00203022B13D1B7
:10133800FB681A6BFB681B680C3312781A70FB6821
:101348001B6B5A1CFB681A63FB68DB8E9BB2013B64
:101358009AB2FB68DA8611E0FEF7B0FF0246BB6975
:10136800D31A3A689A4203D83B68B3F1FF3F02D1D7
:101378003B68002B02D10323FB7726E0FB68DB8E5A
:101388009BB2002BCDD1BA693968F86800F094F89F
:101398000346002B02D0FB6820225A65FB689B6835
:1013A800002B0AD100233B61FB681B68DB683B61AB
:1013B800FB681B689B683B613B69FB685B6D002BA6
:1013C80002D00123FB7700E000BFFB68012283F80D
:1013D8005120FB68002283F85020FB7F18462037F5
:1013E800BD4680BD80B584B000AFF860B9603B6091
:1013F8001346FB714CE03B68B3F1FF3F48D0FEF762
:101408005DFF0246BB69D31A3A689A4202D93B6823
:10141800002B3DD1FB681B685A68FB681B6822F0EB
:10142800E0025A60FB685B68B3F5827F11D1FB6804
:101438009B68B3F5004F04D0FB689B68B3F5806FD9
:1014480007D1FB681B681A68FB681B6822F040021A
:101458001A60FB689B6AB3F5005F0FD1FB681B68D5
:101468001A68FB681B6822F400521A60FB681B6844
:101478001A68FB681B6842F400521A60FB68012274
:1014880083F85120FB68002283F8502003230FE0E3
:10149800FB681B689A68BB681340BA689A420CBF1D
:1014A80001230023DBB21A46FB799A42A3D1002319
:1014B80018461037BD4680BD80B588B002AFF860C9
:1014C800B9607A601B4B1B681B4AA2FB03235B0DA8
:1014D8004FF47A7202FB03F37B61FB685B68B3F538
:1014E800827F12D17B680093BB6800228021F86854
:1014F800FFF778FF0346002B16D0FB685B6D43F0BF
:101508002002FB685A6503230FE07B69002B0AD091
:101518007B69013B7B61FB681B689B6803F0800368
:10152800802BF2D000E000BF002318461837BD46D4
:1015380080BD00BF20000020819F5E1680B582B06C
:1015480000AF0346FB71002210210C48FFF762F937
:10155800002202210948FFF75DF9F91D4FF0FF331A
:1015680001220748FFF70AFE012210210348FFF76E
:1015780051F900BF0837BD4680BD00BF00000240DA
:101588004400002080B584B000AF78603960002244
:1015980010211548FFF73EF9012202211248FFF7F2
:1015A80039F915E03B684FF6FF72934228BF13469E
:1015B800FB81FA894FF0FF3379680C48FFF7DEFDAD
:1015C800FB897A6813447B60FB893A68D31A3B60CD
:1015D8003B68002BE6D1012210210348FFF71AF9D6
:1015E80000BF1037BD4680BD000002404400002007
:1015F80080B582B000AF0346FB71002210210C4871
:10160800FFF708F9012202210948FFF703F9F91D3C
:101618004FF0FF3301220748FFF7B0FD01221021E8
:101628000348FFF7F7F800BF0837BD4680BD00BF85
:10163800000002404400002080B582B000AF03469D
:10164800FB713620FFF77AFFFB79032B1AD801A22A
:1016580052F823F06D160008751600087D1600086C
:1016680085160008C020FFF7C3FF0CE0A020FFF795
:10167800BFFF08E00020FFF7BBFF04E06020FFF792
:10168800B7FF00E000BF00BF0837BD4680BD00BF00
:1016980090B587B000AF0446084611461A4623465F
:1016A800FB800346BB800B467B8013463B800022B1
:1016B80010212448FFF7AEF8FB88FB827B88BB82A9
:1016C800BB887B823B883B822A20FFF737FFFB8A57
:1016D8001B0A9BB2DBB23B73FB8ADBB27B73BB8A10
:1016E8001B0A9BB2DBB2BB73BB8ADBB2FB7307F18D
:1016F8000C0304211846FFF745FF2B20FFF71EFFB8
:101708007B8A1B0A9BB2DBB23B727B8ADBB27B72A1
:101718003B8A1B0A9BB2DBB2BB723B8ADBB2FB7211
:1017280007F1080304211846FFF72CFF2C20FFF7C8
:1017380005FF012210210348FFF76CF800BF1C3792
:10174800BD4690BD0000024090B58BB000AF192097
:10175800FEF7BEFD002208214648FFF75BF8192076
:10176800FEF7B6FD012208214248FFF753F8322060
:10177800FEF7AEFD3A20FFF7E1FE5520FFF738FFF0
:10178800B220FFF7DBFE3C4A07F1200392E8030092
:1017980018600433197007F1200305211846FFF774
:1017A800F1FE0220FFF748FFB720FFF7C7FE3520FC
:1017B800FFF71EFFBB20FFF7C1FE1920FFF718FF38
:1017C800C020FFF7BBFE2C20FFF712FFC220FFF757
:1017D800B5FE0120FFF70CFFC320FFF7AFFE122074
:1017E800FFF706FFC420FFF7A9FE2020FFF700FF40
:1017F800C620FFF7A3FE0F20FFF7FAFED020FFF761
:101808009DFEA420FFF7F4FEA120FFF7F1FEE020E3
:10181800FFF794FE194B07F110040FCB07C4238080
:1018280007F110030E211846FFF7ACFEE120FFF781
:1018380085FE134B3C460FCB07C423803B460E2145
:101848001846FFF79FFE2120FFF778FE1120FFF7CB
:1018580075FE1320FFF772FE2920FFF76FFE322076
:10186800FEF736FD002000F00DF800BF2C37BD460E
:1018780090BD00BF00000240BC2D0008C42D000828
:10188800D42D000880B584B000AF0346FB80EF2359
:10189800EF2200210020FFF7FBFE0022102116484E
:1018A800FEF7B8FF0023FB8119E00023BB8110E09D
:1018B800FB881B0A9BB2DBB23B72FB88DBB27B72F4
:1018C80007F1080302211846FFF75CFEBB890133C4
:1018D800BB81BB89EF2BEBD9FB890133FB81FB89EA
:1018E800EF2BE2D9012210210348FEF793FF00BF36
:1018F8001037BD4680BD00BF0000024080B584B0EF
:1019080000AF0346FB800B46BB8013467B80FB88F9
:10191800EF2B21D8BB88EF2B1ED8BB88FA88B98853
:10192800F888FFF7B5FE7B881B0A9BB2DBB23B73D6
:101938007B88DBB27B73002210210948FEF76AFF1F
:1019480007F10C0302211846FFF71CFE01221021A3
:101958000348FEF75FFF00E000BF1037BD4680BDBB
:101968000000024090B587B000AF04460846114613
:101978001A462346FB800346BB800B467B801346F2
:101988003B803A88BB88D31A83EAE372A2EBE372FE
:101998007988FB88CB1A002BB8BF5B429A42CCBF30
:1019A80001230023DBB27B827B8A002B0BD0FB88D0
:1019B8003B82BB88FB803B8ABB807B883B823B8821
:1019C8007B803B8A3B80FA887B889A420BD9FB88CC
:1019D8003B827B88FB803B8A7B80BB883B823B8841
:1019E800BB803B8A3B807A88FB88D31A9BB2FB81F9
:1019F8003A88BB88D31A002BB8BF5B42BB81B7F9C2
:101A08000E30DA0F13445B10FB82BA883B889A4287
:101A180002D20123BB8228E04FF6FF73BB8224E089
:101A28007B8A002B06D03A8DF988BB881846FFF7C9
:101A380065FF05E03A8DB988FB881846FFF75EFF19
:101A4800FA8ABB89D31A9BB2FB82B7F91630002BEE
:101A580008DABA8ABB881344BB80FA8AFB89134424
:101A68009BB2FB82FB880133FB80FA887B889A4211
:101A7800D6D900BF00BF1C37BD4690BD90B585B014
:101A880002AF0446084611461A462346FB80034621
:101A9800BB800B467B8013463B80002210211848F0
:101AA800FEF7B8FEBC887A88B988F8883B8B009323
:101AB8002346FFF757FF3C88FA88B988F8883B8B9C
:101AC80000932346FFF74EFF3C887A883988F888C8
:101AD8003B8B00932346FFF745FF3C887A88B988FB
:101AE80078883B8B00932346FFF73CFF01221021A7
:101AF8000348FEF78FFE00BF0C37BD4690BD00BF00
:101B08000000024090B587B000AF04460846114671
:101B18001A462346FB800346BB800B46FB701346E0
:101B28003B80FB789BB2C3F101039BB2FB8201238C
:101B3800BB82FB789BB21A46D203D31A5B009BB2D6
:101B48007B8200233B82FB78FB81002210215F48C7
:101B5800FEF760FEFB789AB2BB88134499B23A88C4
:101B6800FB881846FFF7CAFEFB789BB2BA88D31ADF
:101B780099B23A88FB881846FFF7C0FEFB789AB2FC
:101B8800FB8813449BB23A88B9881846FFF7B6FE1B
:101B9800FB789BB2FA88D31A9BB23A88B988184660
:101BA800FFF7ACFE81E0B7F91630002B0EDBB7F972
:101BB8000E309BB2013B9BB2FB817B8A02339BB206
:101BC8007B82FA8A7B8A13449BB2FB82B7F9103076
:101BD8009BB201339BB23B82BB8A02339BB2BB826E
:101BE800FA8ABB8A13449BB2FB823A8AFB88134465
:101BF80098B2FA89BB8813449BB23A881946FFF712
:101C08007DFE3B8AFA88D31A98B2FA89BB881344B6
:101C18009BB23A881946FFF771FE3A8AFB8813444B
:101C280098B2FB89BA88D31A9BB23A881946FFF74B
:101C380065FE3B8AFA88D31A98B2FB89BA88D31A08
:101C48009BB23A881946FFF759FEFA89FB88134474
:101C580098B23A8ABB8813449BB23A881946FFF770
:101C68004DFEFB89FA88D31A98B23A8ABB88134486
:101C78009BB23A881946FFF741FEFA89FB8813445C
:101C880098B23B8ABA88D31A9BB23A881946FFF7AA
:101C980035FEFB89FA88D31A98B23B8ABA88D31AD8
:101CA8009BB23A881946FFF729FEB7F91020B7F911
:101CB8000E309A42FFF677AF012210210348FEF753
:101CC800A9FD00BF1C37BD4690BD00BF0000024003
:101CD80090B583B000AF0446084611461A4623461D
:101CE800FB800346BB800B467B8013463B80FB880A
:101CF800EF2B31D8BB88EF2B2ED8FA887B8813447A
:101D0800F02B2BDCBA883B881344F02B28DC00220C
:101D180010211548FEF77EFDFA887B8813449BB294
:101D2800013B9CB2BA883B8813449BB2013B9BB2EF
:101D3800B988F8882246FFF7ABFC7B883A8802FB13
:101D480003F35B001946B869FFF71CFC0122102158
:101D58000548FEF75FFD04E000BF02E000BF00E0B9
:101D680000BF0C37BD4690BD0000024082B090B560
:101D780089B000AF7B630346FB800B46BB801346EC
:101D8800FB70002210213848FEF744FD97F83430E4
:101D98009AB2FB8813449BB2013B9CB297F835304A
:101DA8009AB2BB8813449BB2013B9BB2B988F888AE
:101DB8002246FFF76DFC0023FB6143E0BA6BFB781A
:101DC800203B97F8351001FB03F31946FB690B44D8
:101DD8005B0013441B887B610023BB6129E07A699F
:101DE800BB6902FA03F303F40043002B0ED0BB8F48
:101DF8001B0A9BB2DBB23B74BB8FDBB27B7407F16F
:101E0800100302211846FFF7BDFB0FE0B7F840307A
:101E18001B0A9BB2DBB23B73B7F84030DBB27B7373
:101E280007F10C0302211846FFF7ACFBBB6901332D
:101E3800BB6197F834301A46BB699342CFD3FB692C
:101E48000133FB6197F835301A46FB699342B5D3E5
:101E5800012210210448FEF7DDFC00BF2437BD46EF
:101E6800BDE8904002B070470000024082B080B5E3
:101E780086B004AF3A607B610346FB800B46BB80AB
:101E8800002210212148FEF7C5FC2DE0FB883A7D91
:101E98001344EF2B13DD0023FB807B7D9AB2BB88B4
:101EA8001344BB80BB887A7D1344EF2B21DC3B684D
:101EB8001B78202B03D13B6801333B6014E03B685F
:101EC8001A78B988F8883B8C0293BB8B0193BB695D
:101ED80000937B69FFF74AFF3B7D9AB2FB88134466
:101EE800FB803B6801333B603B681B78002BCDD1FE
:101EF80000E000BF012210210448FEF78BFC00BF60
:101F08000837BD46BDE8804002B070470000024077
:101F180090B587B002AF0446084611461A462346D4
:101F2800FB800346BB800B467B8013463B80002228
:101F380010212248FEF76EFCFB88EF2B3AD8BB88AD
:101F4800EF2B37D8FA887B881344EF2B03DDFB8807
:101F5800C3F1F0037B80BA883B881344EF2B03DD81
:101F6800BB88C3F1F0033B800023FB7317E0FB7BC6
:101F78009AB2BB88134499B2FA887B8813449CB2FE
:101F8800FB7B9AB2BB8813449AB2F8883B8C0093C7
:101F980013462246FFF7E6FCFB7B0133FB73FB7B12
:101FA8009BB23A889A42E2D2012210210348FEF7F6
:101FB80031FC00E000BF1437BD4690BD0000024070
:101FC80090B585B002AF0446084611461A46234626
:101FD800FB800346BB800B467B8013463B80002278
:101FE80010211348FEF716FC3C887A88B988F888CF
:101FF8003B8C00932346FFF7B5FCBC8B3A8B3988A2
:1020080078883B8C00932346FFF7ACFCBC88FA88A1
:10201800B98B388B3B8C00932346FFF7A3FC012236
:1020280010210348FEF7F6FB00BF0C37BD4690BDF4
:102038000000024090B58DB002AF04460846114634
:102048001A462346FB800346BB800B467B8013461B
:102058003B80002210215D48FEF7DCFB00233B8219
:102068000023FB810023FB840023BB8400237B84A3
:1020780000233B840023FB830023BB8300237B8353
:1020880000233B830023FB820023BB8200237B8247
:102098007A88FB88D31A002BB8BF5B423B823A8808
:1020A800BB88D31A002BB8BF5B42FB81FB88FB843B
:1020B800BB88BB847A88FB889A4204D301237B843B
:1020C80001233B8405E04FF6FF737B844FF6FF73D3
:1020D8003B843A88BB889A4204D30123FB830123BB
:1020E800BB8305E04FF6FF73FB834FF6FF73BB839B
:1020F800B7F91020B7F90E309A4210DB00237B8421
:102108000023BB833B8A7B83B7F91030DA0F134473
:102118005B103B83FB89FB823B8ABB820FE0002379
:102128003B840023FB83FB897B83B7F90E30DA0FEE
:1021380013445B103B833B8AFB82FB89BB820023F1
:102148007B8233E0F88CB98CBC8F3A8FB7F840307B
:1021580000932346FFF706FC3A8BFB8A13449BB295
:102168003B83B7F91820B7F91A309A420EDB3A8B3D
:102178007B8BD31A9BB23B83FA8C7B8C13449BB228
:10218800FB84BA8CFB8B13449BB2BB84FA8C3B8CCC
:1021980013449BB2FB84BA8CBB8B13449BB2BB84A5
:1021A800B7F912309BB201339BB27B82B7F9122088
:1021B800B7F914309A42C5DD012210210348FEF711
:1021C80029FB00BF2C37BD4690BD00BF0000024070
:1021D80090B589B002AF0446084611461A46234610
:1021E800FB800346BB800B467B8013463B80002266
:1021F80010216948FEF70EFB7B88C3F101039BB2EF
:10220800FB820123BB827B881A46D203D31A5B0068
:102218009BB27B8200233B827B88FB81F888BA884B
:102228007B8813449BB23A881946FFF767FBF88806
:10223800BA887B88D31A9BB23A881946FFF75EFBA7
:10224800FA887B8813449BB2B9883A881846FFF706
:1022580055FBFA887B88D31A9BB2B9883A88184606
:10226800FFF74CFBFA887B88D31A98B2B988FA88AA
:102278007B8813449AB2BC883B8800932346FFF7B7
:1022880071FB79E0B7F91630002B0EDBB7F90E3089
:102298009BB2013B9BB2FB817B8A02339BB27B8260
:1022A800FA8A7B8A13449BB2FB82B7F910309BB23F
:1022B80001339BB23B82BB8A02339BB2BB82FA8A50
:1022C800BB8A13449BB2FB82FA883B8AD31A98B222
:1022D800BA88FB89134499B2FA883B8A13449CB2A2
:1022E800BA88FB8913449AB23B8800931346224666
:1022F800FFF738FBFA883B8A134498B2BA88FB89FF
:10230800D31A99B2FA883B8AD31A9CB2BA88FB8945
:10231800D31A9AB23B88009313462246FFF722FB52
:10232800FA88FB89134498B2BA883B8A134499B255
:10233800FA88FB89D31A9CB2BA883B8A13449AB2AA
:102348003B88009313462246FFF70CFBFA88FB896B
:10235800134498B2BA883B8AD31A99B2FA88FB898F
:10236800D31A9CB2BA883B8AD31A9AB23B88009394
:1023780013462246FFF7F6FAB7F91020B7F90E30E0
:102388009A42FFF67FAF012210210348FEF742FA76
:1023980000BF1C37BD4690BD0000024080B584B028
:1023A80004AF4FF6FF70FFF76DFA4FF47A70FDF740
:1023B8008FFFC44B4FF6FF7202924FF4784201929E
:1023C8005A6800921B68C04A14210A20FFF74EFD84
:1023D8004FF47A70FDF77CFF47F6FF70FFF752FA6B
:1023E8004FF4FA70FDF774FF4FF47840FFF74AFA9C
:1023F8004FF4FA70FDF76CFF1F20FFF743FA4FF414
:10240800FA70FDF765FF4FF4FC60FFF73BFA4FF4F5
:10241800FA70FDF75DFF4FF6E070FFF733FA4FF4FF
:10242800FA70FDF755FF4BF64040FFF72BFA4FF4D3
:10243800FA70FDF74DFF40F2CF10FFF723FA4FF483
:10244800FA70FDF745FF4FF61F00FFF71BFA4FF430
:10245800FA70FDF73DFF48F21F40FFF713FA4FF4FB
:10246800FA70FDF735FF4CF21860FFF70BFA4FF4DE
:10247800FA70FDF72DFF42F61230FFF703FA4FF41A
:10248800FA70FDF725FF4FF6FF70FFF7FBF94FF4E1
:10249800FA70FDF71DFF8D4B4FF6FF72029240F266
:1024A800FF7201925A6800921B68894A0A210A2021
:1024B800FFF7DCFC874B4FF6FF7202924FF478422D
:1024C80001925A6800921B68834A32210A20FFF75A
:1024D800CDFC7C4B4FF6FF7202924FF6E0720192F0
:1024E8005A6800921B687C4A4B210A20FFF7BEFC01
:1024F800764B4FF6FF7202924FF61F0201925A680E
:1025080000921B68744A64210A20FFF7AFFC4FF45D
:102518007A70FDF7DDFE4FF47840FFF7B3F9694BA9
:102528004FF4784202924FF6E07201925A68009294
:102538001B686A4A0A210A20FFF798FC4FF6FF73C6
:102548000093642364221E211E20FFF797FA4FF49C
:102558007A70FDF7BDFE4FF47840FFF793F9594BB9
:102568004FF4784202924FF6E07201925A68009254
:102578001B685B4A0A210A20FFF778FC4FF6FF73B5
:102588000093322332221E211E20FFF7C1FC4FF494
:102598007A70FDF79DFE4FF47840FFF773F9494BC9
:1025A8004FF4784202924FF6E07201925A68009214
:1025B8001B684C4A0A210A20FFF758FC4FF6FF73A4
:1025C80019223C213C20FFF79DFA4FF47A70FDF761
:1025D8007FFE4FF47840FFF755F93A4B4FF47842B5
:1025E80002924FF6E07201925A6800921B683E4AC6
:1025F8000A210A20FFF73AFC4FF6FF7319223C2103
:102608003C20FFF7E5FD4FF47A70FDF761FE4FF4CB
:102618007840FFF737F92B4B4FF4784202924FF688
:10262800E07201925A6800921B68304A0A210A2017
:10263800FFF71CFC4FF6FF730293282301933C23FA
:10264800009346231E221E211E20FFF7B9FC4FF4DB
:102658007A70FDF73DFE4FF47840FFF713F9194BF8
:102668004FF4784202924FF6E07201925A68009253
:102678001B681F4A0A210A20FFF7F8FB4FF6FF7371
:102688000293282301933C23009346231E221E21F4
:102698001E20FFF7CFFC4FF47A70FDF719FE4FF6B6
:1026A800FF70FFF7EFF8134B00938023802200217F
:1026B8000020FFF70DFB40F6B830FDF709FE00BF1C
:1026C800BD4680BD10000020E42D00081800002041
:1026D800F02D000808000020FC2D00080C2E000832
:1026E800182E0008282E0008302E00083C2E00085E
:1026F800482E00086856000880B588B000AF07F17A
:102708000C0300221A605A609A60DA601A6100238A
:10271800BB60184B1B6B174A43F080031363154BC0
:102728001B6B03F08003BB60BB6800237B60114B0D
:102738001B6B104A43F0010313630E4B1B6B03F032
:1027480001037B607B6800221A210B48FEF762F8C0
:102758001A23FB6001233B6100237B610323BB61D8
:1027680007F10C0319460448FDF7BAFE00BF2037ED
:10277800BD4680BD003802400000024080B500AF71
:10278800FDF738FD00F00AF8FFF7B6FF00F076F81D
:10279800FEF7DAFFFFF702FEFCE7000080B594B011
:1027A80000AF07F1200330220021184600F0EEFAAE
:1027B80007F10C0300221A605A609A60DA601A6105
:1027C8000023BB60284B1B6C274A43F080531364DB
:1027D800254B1B6C03F08053BB60BB6800237B60F8
:1027E800224B1B68214A43F4804313601F4B1B682C
:1027F80003F480437B607B6801233B624FF48033A2
:102808007B620223BB634FF48003FB6304233B64B6
:10281800A8237B640223BB640423FB6407F1200321
:102828001846FEF70FF80346002B01D000F020F8F9
:102838000F23FB6002233B6100237B614FF4A0530D
:10284800BB614FF48053FB6107F10C030521184667
:10285800FEF768FA0346002B01D000F009F800BF24
:102868005037BD4680BD00BF0038024000700040B0
:1028780080B400AF00BFBD4680BC704780B500AFD4
:10288800174B184A1A60164B4FF482725A60144B51
:1028980000229A60124B0022DA60114B00221A6162
:1028A8000F4B00225A610E4B4FF400729A610C4B89
:1028B8000022DA610A4B00221A62094B00225A628E
:1028C800074B00229A62064B0A22DA620448FEF796
:1028D800F1FB0346002B01D0FFF7CAFF00BF80BD04
:1028E800440000200030014080B58AB000AF786015
:1028F80007F1140300221A605A609A60DA601A61BC
:102908007B681B68194A93422BD100233B61184B03
:102918005B6C174A43F480535364154B5B6C03F4A8
:1029280080533B613B690023FB60114B1B6B104AD2
:1029380043F0010313630E4B1B6B03F00103FB60B1
:10294800FB68A0237B610223BB610023FB61032397
:102958003B6205237B6207F1140319460548FDF71E
:10296800BFFD00BF2837BD4680BD00BF0030014015
:10297800003802400000024080B483B000AF00235A
:102988007B600F4B5B6C0E4A43F4804353640C4BE3
:102998005B6C03F480437B607B6800233B60084BDF
:1029A8001B6C074A43F080531364054B1B6C03F000
:1029B80080533B603B6800BF0C37BD4680BC704706
:1029C8000038024080B400AF00BFBD4680BC7047ED
:1029D80080B400AFFEE780B400AFFEE780B400AF7C
:1029E800FEE780B400AFFEE780B400AF00BFBD468D
:1029F80080BC704780B400AF00BFBD4680BC704744
:102A080080B400AF00BFBD4680BC704780B500AF42
:102A1800FDF742FC00BF80BD80B400AF034B4FF010
:102A280000629A6000BFBD4680BC704700ED00E0C0
:102A3800DFF834D0002103E00C4B5B5843500431DD
:102A48000B480C4B42189A42F6D30B4A02E000237B
:102A580042F8043B094B9A42F9D3FFF7DDFF00F037
:102A680071F9FFF78BFE70470000022088D6000836
:102A78000000002024000020240000209C000020EA
:102A8800FEE700002DE9F047089E0D4604468E46F5
:102A9800002B40F082808A42174646D9B2FA82F269
:102AA8004AB1C2F1200105FA02F320FA01F1974078
:102AB80041EA030E94404FEA1748230CBEFBF8FC8A
:102AC800B9B208FB1CEE43EA0E430CFB01F0984236
:102AD8000AD9FB180CF1FF3580F01681984240F2B4
:102AE8001381ACF1020C3B441B1AA4B2B3FBF8F0FF
:102AF80008FB103344EA034400FB01F1A14209D961
:102B08003C1900F1FF3380F00181A14240F2FE80C0
:102B180002383C44641A40EA0C4000211EB1D440FB
:102B28000023C6E90043BDE8F08702B9FFDEB2FA28
:102B380082F2002A4FD1CB1B4FEA174E1FFA87F8B3
:102B48000121B3FBFEFC250C0EFB1C3345EA0345B3
:102B580008FB0CF3AB4207D97D190CF1FF3002D208
:102B6800AB4200F2E7808446ED1AA3B2B5FBFEF053
:102B78000EFB105543EA054408FB00F8A04507D9A9
:102B88003C1900F1FF3302D2A04500F2D780184665
:102B9800A4EB080440EA0C40C0E78B4208D9002E99
:102BA80000F0AF800021C6E900050846BDE8F087BF
:102BB800B3FA83F100294BD1AB4202D3824200F22F
:102BC800B780841A65EB030301209E46002EAAD025
:102BD800C6E9004EA7E7C2F1200C01FA02F39740BC
:102BE80020FA0CF04FEA174E21FA0CFC1843BCFBF4
:102BF800FEF1050C0EFB11CC1FFA87F845EA0C45CF
:102C080001FB08F3AB4204FA02F409D97D1901F17A
:102C1800FF3C80F08B80AB4240F2888002393D4413
:102C2800EB1A85B2B3FBFEF00EFB103345EA034501
:102C380000FB08F3AB4207D97D1900F1FF3C71D2C4
:102C4800AB426FD902383D44EB1A40EA014178E7BC
:102C5800C1F1200C8B4022FA0CF71F4320FA0CF428
:102C680005FA01F34FEA174E25FA0CF51C43230C1D
:102C7800B5FBFEF91FFA87F80EFB195543EA05451F
:102C880009FB08FAAA4502FA01F200FA01F308D989
:102C98007D1909F1FF3047D2AA4545D9A9F10209A2
:102CA8003D44A5EB0A05A4B2B5FBFEF00EFB10559A
:102CB80044EA054400FB08F8A04507D93C1900F18F
:102CC800FF352DD2A0452BD902383C4440EA0940B3
:102CD800A4EB0804A0FB02894C45C6464D4619D30F
:102CE80016D05EB1B3EB0E0264EB050404FA0CFCDB
:102CF800CA404CEA0202CC40C6E900240021BDE8E3
:102D0800F087314630460EE7AC46EDE6184601E757
:102D18004345E6D2B8EB020E69EB07050138E0E758
:102D28002846D3E760468FE78146BAE7614677E7EA
:102D380008464BE7ACF1020C3D4415E702383C4429
:102D480026E700BF70B50D4D0D4C641BA41000267E
:102D5800A64209D10B4D0C4C00F020F8641BA410BE
:102D68000026A64205D170BD55F8043B98470136A8
:102D7800EEE755F8043B98470136F2E780D600089D
:102D880080D6000880D6000884D60008024403468E
:102D9800934200D1704703F8011BF9E7F8B500BF6B
:102DA800F8BC08BC9E467047F8B500BFF8BC08BC24
:042DB8009E4670477C
:102DBC000C0C003333000000D0040D11132B3F54C6
:102DCC004C180D0B1F230000D0040C11132C3F4486
:102DDC00512F1F1F2023000053706565642054651C
:102DEC0073740000466F6E7420746573742E00004B
:102DFC0048656C6C6F20537465766521000000008B
:102E0C00526563742E2F4C696E652E0046696C6C8E
:102E1C00656420526563742E000000004369726380
:102E2C006C652E0046696C6C6564204369722E00DB
:102E3C00547269616E676C650000000046696C6CC9
:102E4C00656420547269000000000000000000005E
:102E5C000000000000000000000000000010001046
:102E6C000010001000100010000000100000000006
:102E7C0000280028002800000000000000000000CE
:102E8C000000000000240024007C00240048007C8A
:102E9C000048004800000000003800540050003882
:102EAC00001400540054003800100000002000549E
:102EBC0000580030002800540014000800000000E6
:102ECC00001000280028001000340048004800348E
:102EDC0000000000001000100010000000000000B6
:102EEC00000000000000000000080010002000207E
:102EFC0000200020002000200010000800200010FE
:102F0C000008000800080008000800080010002055
:102F1C000010003800100028000000000000000025
:102F2C00000000000000000000100010007C0010E9
:102F3C000010000000000000000000000000000075
:102F4C000000000000000010001000100000000045
:102F5C00000000000000003800000000000000002D
:102F6C000000000000000000000000000000001045
:102F7C0000000000000800080010001000100010F5
:102F8C0000200020000000000038004400440054E1
:102F9C0000440044004400380000000000100030E1
:102FAC000050001000100010001000100000000075
:102FBC000038004400440004000800100020007C8D
:102FCC000000000000380044000400180004000455
:102FDC0000440038000000000008001800280028F9
:102FEC000048007C0008000800000000007C004045
:102FFC000040007800040004004400380000000089
:10300C00003800440040007800440044004400387C
:10301C0000000000007C00040008001000100020DC
:10302C00002000200000000000380044004400385C
:10303C000044004400440038000000000038004404
:10304C0000440044003C0004004400380000000030
:10305C000000000000100000000000000000001044
:10306C000000000000000000000000100000000044
:10307C00000000100010001000000000000C0030D8
:10308C0000400030000C00000000000000000000B8
:10309C000000007C0000007C00000000000000002C
:1030AC000000000000600018000400180060000020
:1030BC00000000000038004400040008001000105C
:1030CC00000000100000000000380044004C0054C8
:1030DC00005C004000400038000000000010002898
:1030EC00002800280028007C004400440000000058
:1030FC000078004400440078004400440044007808
:10310C000000000000380044004000400040004037
:10311C0000440038000000000070004800440044E7
:10312C00004400440048007000000000007C004097
:10313C000040007C004000400040007C000000008B
:10314C00007C0040004000780040004000400040FF
:10315C00000000000038004400400040005C0044C7
:10316C000044003800000000004400440044007C8F
:10317C0000440044004400440000000000380010EB
:10318C0000100010001000100010003800000000AB
:10319C00000400040004000400040004004400388F
:1031AC00000000000044004800500060005000483F
:1031BC000048004400000000004000400040004077
:1031CC00004000400040007C000000000044006C07
:1031DC00006C005400440044004400440000000013
:1031EC0000440064006400540054004C004C004443
:1031FC000000000000380044004400440044004437
:10320C0000440038000000000078004400440044F2
:10321C0000780040004000400000000000380044EE
:10322C0000440044004400440054003800040000F2
:10323C0000780044004400440078004800480044F2
:10324C00000000000038004400400030000800047A
:10325C000044003800000000007C0010001000103A
:10326C00001000100010001000000000004400448A
:10327C0000440044004400440044003800000000B6
:10328C0000440044004400280028002800100010CE
:10329C000000000000440044005400540054006C32
:1032AC00002800280000000000440028002800101E
:1032BC0000100028002800440000000000440044D6
:1032CC000028002800100010001000100000000062
:1032DC00007C000400080010001000200040007C5E
:1032EC00000000000018001000100010001000106A
:1032FC00001000100010001800200020001000101A
:10330C000010001000080008000000000030001041
:10331C000010001000100010001000100010003001
:10332C0000100028002800440000000000000000ED
:10333C000000000000000000000000000000000081
:10334C0000000000000000FE002000100000000043
:10335C000000000000000000000000000000000061
:10336C0000380044003C0044004C003400000000D5
:10337C0000400040005800640044004400640058C1
:10338C000000000000000000003800440040004035
:10339C000044003800000000000400040034004C1D
:1033AC0000440044004C0034000000000000000009
:1033BC0000380044007C004000440038000000004D
:1033CC00000C0010007C0010001000100010001009
:1033DC0000000000000000000034004C00440044D9
:1033EC00004C003400040078004000400058006499
:1033FC0000440044004400440000000000100000A1
:10340C0000700010001000100010001000000000F0
:10341C0000100000007000100010001000100010D0
:10342C00001000E0004000400048005000600050D8
:10343C000048004400000000007000100010001054
:10344C000010001000100010000000000000000030
:10345C000078005400540054005400540000000044
:10346C000000000000580064004400440044004484
:10347C00000000000000000000380044004400443C
:10348C0000440038000000000000000000580064F8
:10349C00004400440064005800400040000000005C
:1034AC000034004C00440044004C00340004000480
:1034BC000000000000580064004000400040004044
:1034CC00000000000000000000380044003000083C
:1034DC00004400380000000000200020007800208C
:1034EC000020002000200018000000000000000058
:1034FC000044004400440044004C00340000000030
:10350C00000000000044004400280028002800109F
:10351C000000000000000000005400540054006C37
:10352C0000280028000000000000000000440028D3
:10353C0000100010002800440000000000000000F3
:10354C000044004400280028001000100010006007
:10355C0000000000007C0008001000200040007CEF
:10356C0000000000001800100010001000200020C7
:10357C0000100010001000180010001000100010B7
:10358C00001000100010001000100010003000108F
:10359C00001000100008000800100010001000308F
:1035AC000000000000000074004C0000000000004F
:1035BC0000000000000000000000000000000000FF
:1035CC0000000000000000000000000000000000EF
:1035DC0000000000000000000000000C000C000CBB
:1035EC00000C000C000C000C000C000C000C000C6F
:1035FC000000000C000C0000000000000000001B8C
:10360C00001B001B001B001B000000000000000042
:10361C00000000000000000000000000000000009E
:10362C0000008019801980198019C07FC07F801913
:10363C000033C07FC07F0033003300330033000001
:10364C00000000000000001E003F807580650074C3
:10365C00003C001E00078005806580658075003F7A
:10366C00001E0004000400000000007000D840D8C8
:10367C00C0D880D900730006000C801BC036C06611
:10368C00C046C00680030000000000000000001EC1
:10369C00003F003300330033001E000CC03CC066FA
:1036AC00806380618063C03E801C000000000000CD
:1036BC000000000C000C000C000C000C00000000C2
:1036CC0000000000000000000000000000000000EE
:1036DC00000000008000000100030006000600044A
:1036EC00000C000C000C000C000C000C000400067C
:1036FC000006000300018000002000100018000CE0
:10370C00000C000400060006000600060006000679
:10371C000004000C000C0018001000200000000C2D
:10372C00002D003F001E00330000000000000000D0
:10373C00000000000000000000000000000000007D
:10374C00000000000000000C000C000C000CC0FF7E
:10375C00C0FF000C000C000C000C0000000000006E
:10376C00000000000000000000000000000000004D
:10377C000000000000000000000000000000000C31
:10378C00000C000400040008000000000000000011
:10379C0000000000000000000000001E001E0000E1
:1037AC00000000000000000000000000000000000D
:1037BC0000000000000000000000000000000000FD
:1037CC00000000000000000C000C000000000000D5
:1037DC0000000003000300030006000600060006BC
:1037EC00000C000C000C000C001800180018000055
:1037FC00000000000000001E003F0033806180616B
:10380C008061806D806D8061806180610033003FDC
:10381C00001E00000000000000000006000E001E4C
:10382C00003600260006000600060006000600060C
:10383C000006000600060000000000000000001E4C
:10384C00003F807380618061800100030006000CE2
:10385C00001800300060807F807F000000000000B6
:10386C000000001C003E006300630003000E000E0D
:10387C0000038001800180618073003F001E000006
:10388C000000000000000006000E000E001E001ECE
:10389C000016003600360066807F807F000600062A
:1038AC0000060000000000000000007F007F0060A8
:1038BC0000600060006E007F806380018001806189
:1038CC008073003F001E0000000000000000001E7E
:1038DC00003F803380610060006E007F80738061E8
:1038EC00806180618033003F001E000000000000FA
:1038FC000000807F807F800100030003000600062B
:10390C00000C000C000C0008001800180018000037
:10391C00000000000000001E003F80638061806199
:10392C000021001E003F8061806180618061003F4A
:10393C00001E0000000000000000001E003F00738D
:10394C008061806180618073803F801D8001806117
:10395C000073003F001E000000000000000000008B
:10396C00000000000000000C000C00000000000033
:10397C00000000000000000C000C00000000000023
:10398C00000000000000000000000000000C000C13
:10399C0000000000000000000000000C000C0004FF
:1039AC0000040008000000000000000080008003FC
:1039BC00000E003800600038000E8003800000000C
:1039CC0000000000000000000000000000000000EB
:1039DC000000807F807F00000000807F807F0000DF
:1039EC0000000000000000000000000000000000CB
:1039FC000000000000400070001C00078001000760
:103A0C00001C0070004000000000000000000000DE
:103A1C000000001F803FC071C060C000C001800367
:103A2C000007000E000C000C0000000C000C000045
:103A3C00000000000000001E003F80318071806398
:103A4C00806F806D806D806F806700600032003EFB
:103A5C00001C0000000000000000000E000E001B07
:103A6C00001B001B001B80318031803F803F803168
:103A7C00C060C060C0600000000000000000007C5E
:103A8C00007E0063006300630063007E007E0063C1
:103A9C00806180618063007F007E00000000000078
:103AAC000000001E003F80318061006000600060FB
:103ABC0000600060006080618031003F001E0000EB
:103ACC00000000000000007C007F006380638061C8
:103ADC008061806180618061806100630063007E31
:103AEC00007C0000000000000000807F807F0060F0
:103AFC00006000600060007F007F0060006000607C
:103B0C000060807F807F0000000000000000807F4C
:103B1C00807F0060006000600060007F007F0060BC
:103B2C0000600060006000600060000000000000A9
:103B3C000000001E003F803180610060006000606A
:103B4C0080638063806180618031803F001E000053
:103B5C0000000000000080618061806180618061F4
:103B6C008061807F807F8061806180618061806105
:103B7C0080610000000000000000003F003F000CCE
:103B8C00000C000C000C000C000C000C000C000CC9
:103B9C00000C003F003F000000000000000080010E
:103BAC008001800180018001800180018001800101
:103BBC00806180618073003F001E000000000000E7
:103BCC000000C0608061006300660066006C0078D5
:103BDC00007C00660066006380618061C06000004C
:103BEC0000000000000000600060006000600060E9
:103BFC000060006000600060006000600060807F1A
:103C0C00807F0000000000000000C071C071C07B0C
:103C1C00C07AC06AC06AC06EC064C060C060C06058
:103C2C00C060C060C0600000000000000000807137
:103C3C008071807980798079806D806D806D8065F0
:103C4C0080678067806780638063000000000000ED
:103C5C000000001E003F0033806180618061806144
:103C6C0080618061806180610033003F001E000034
:103C7C00000000000000007E007F80638061806196
:103C8C0080618063007F007E0060006000600060E7
:103C9C0000600000000000000000001E003F003328
:103CAC0080618061806180618061806180658067F6
:103CBC000033803F401E0000000000000000007E2A
:103CCC00007F8063806180618063007F007E00667E
:103CDC000063006380618061C06000000000000030
:103CEC000000000E001F8031803100300038001EB3
:103CFC0000078003806180618031003F001E00005E
:103D0C00000000000000C0FFC0FF000C000C000C05
:103D1C00000C000C000C000C000C000C000C000C37
:103D2C00000C0000000000000000806180618061D8
:103D3C00806180618061806180618061806180616F
:103D4C008073003F001E0000000000000000C060F7
:103D5C00C060C060803180318031001B001B001BB3
:103D6C00001B000E000E000E0004000000000000FE
:103D7C000000C0C0C0C0C0C0C0C0C0C0C0CC804C5F
:103D8C00804C805E80528052807380618061000024
:103D9C00000000000000C0C0806080610033003B68
:103DAC00001E000C000C001E001F003B8071806187
:103DBC00C0C00000000000000000C0C08061806135
:103DCC0000330033001E001E000C000C000C000C15
:103DDC00000C000C000C0000000000000000803FF4
:103DEC00803F8001000300030006000C000C00184B
:103DFC00001800300060807F807F00000000000011
:103E0C00000F000F000C000C000C000C000C000C40
:103E1C00000C000C000C000C000C000C000C000C36
:103E2C00000F000F0000001800180018000C000C08
:103E3C00000C000C00060006000600060003000340
:103E4C000003000000000000001E001E000600061B
:103E5C000006000600060006000600060006000626
:103E6C000006000600060006001E001E0000000CE6
:103E7C00000C001E001200330033806180610000D2
:103E8C000000000000000000000000000000000026
:103E9C000000000000000000000000000000000016
:103EAC000000000000000000000000000000000006
:103EBC00E0FF0000000000380018000C00000000BB
:103ECC0000000000000000000000000000000000E6
:103EDC0000000000000000000000000000000000D6
:103EEC000000001F803F80618001801F803F806147
:103EFC008063807FC038000000000000000000607C
:103F0C00006000600060006E007F807380618061E3
:103F1C00806180618073007F006E000000000000F3
:103F2C0000000000000000000000001E003F807335
:103F3C0080610060006080618073003F001E0000A3
:103F4C000000000000008001800180018001801DC4
:103F5C00803F807380618061806180618073803F6D
:103F6C00801D0000000000000000000000000000A8
:103F7C000000001E003F00738061807F807F006026
:103F8C008071003F001E0000000000000000C00710
:103F9C00C00F000C000C807F807F000C000C000C0C
:103FAC00000C000C000C000C000C000000000000C9
:103FBC000000000000000000801D803F80738061C5
:103FCC008061806180618073803F801D800180638F
:103FDC00007F003E00000060006000600060006F29
:103FEC00807F80718061806180618061806180618F
:103FFC0080610000000000000000000600060000C8
:10400C000000003E003E000600060006000600060A
:10401C000006000600060000000000000006000676
:10402C0000000000003E003E0006000600060006F0
:10403C00000600060006000600060046007E003C56
:10404C00000000600060006000608061006300663A
:10405C00006C007C0076006300638061C06000002F
:10406C00000000000000003E003E000600060006B6
:10407C000006000600060006000600060006000604
:10408C00000600000000000000000000000000001E
:10409C00000080DDC0FFC0CEC0CCC0CCC0CCC0CC3A
:1040AC00C0CCC0CCC0CC0000000000000000000060
:1040BC00000000000000006F807F807180618061D3
:1040CC00806180618061806180610000000000007F
:1040DC0000000000000000000000001E003F807384
:1040EC0080618061806180618073003F001E0000F0
:1040FC00000000000000000000000000006E007FC7
:10410C00807380618061806180618073007F006E4C
:10411C000060006000600060000000000000000013
:10412C00801D803F807380618061806180618073BD
:10413C00803F801D80018001800180010000000013
:10414C000000000000000067803F003900300030A4
:10415C000030003000300030003000000000000063
:10416C0000000000000000000000001E803F806185
:10417C000060007F803F80018061007F001E000096
:10418C000000000000000000000800180018007F6C
:10419C00007F001800180018001800180018801F65
:1041AC00800F000000000000000000000000000074
:1041BC0000008061806180618061806180618061CC
:1041CC008063807F803D0000000000000000000044
:1041DC00000000000000C060803180318031001B85
:1041EC00001B001B000E000E00060000000000006B
:1041FC000000000000000000000080DD80DD80DD9C
:10420C000055005500550077007700220022000071
:10421C0000000000000000000000000000008061B1
:10422C0000330033001E000C000C001E0033003362
:10423C008061000000000000000000000000000091
:10424C0080618061803100330033001B001B001B38
:10425C00000E000E000E001C007C00700000000020
:10426C00000000000000C07FC07F8001000300063A
:10427C00000C00180030C07FC07F00000000000060
:10428C008003800700060006000600060006000EEC
:10429C00001C001C000E00060006000600060006AE
:1042AC0080078003000600060006000600060006D4
:1042BC0000060006000600060006000600060006C2
:1042CC0000060006000600060038003C000C000C3E
:1042DC00000C000C000C000E00070007000E000C78
:1042EC00000C000C000C000C003C0038000000001E
:1042FC00000000000000000000008038807F0047B4
:10430C0000000000000000000000000000000000A1
:10431C000000000000000000000000000000000091
:10432C000000000000000000000000000000000081
:10433C000000000000000000000000000000000071
:10434C0000000000E003E003E003E003E003E0030F
:10435C00E003E003C003C003C001C001C001C00101
:10436C00C001000000000000E003E003E0030000D7
:10437C0000000000000000003C1E3C1E3C1E3C1EC9
:10438C003C1E3C1E3C1E0000000000000000000013
:10439C000000000000000000000000000000000011
:1043AC00000000000000000000000000CE01CE0361
:1043BC00DE039E039C039C07FF3FFF7F3807380FEB
:1043CC00780F780F780EFFFFFFFFF01EF01CE01C3B
:1043DC00E03CE03DE039000000000000000000007F
:1043EC00FC03FE0FEE1FE01EE01EE01EE01EE01FB1
:1043FC00E00FE007F003FC01FE01FE01FE01FE01EF
:10440C00FE01FE01FE3DFC3FF00FE001E00100006B
:10441C0000000000033E07F78FE78EE79EE3BCE346
:10442C00B8E7F8E7F0F7E03FC001FF03FF07F30739
:10443C00F30FF31EF33CF338F3787FF03FE000000A
:10444C000000000000000000E007F80F780F781F54
:10445C00781F781F780FF00FE00F801FC37FC3FB0E
:10446C00E7F3F7F1F7F0FFF07FF03EF87F7CFF3FCA
:10447C00EF1F00000000000000000000E003E0035C
:10448C00E003E003E003C003C001000000000000F3
:10449C000000000000000000000000000000000010
:1044AC000000000000000000000000000000000000
:1044BC003F007C00F001E001C003C00780078007CB
:1044CC00800F000F000F000F000F000F000F800F68
:1044DC0080078007C007C003E001F0017C003F00AB
:1044EC000F000000007E001FC007C003E001F001B8
:1044FC00F000F000F8007800780078007800780080
:10450C007800F800F000F000F001E001C003C007F3
:10451C00001F007E00780000E003C003C001CE390C
:10452C00FF3F7F3F20037003F807780F3C1F3806CE
:10453C00000000000000000000000000000000006F
:10454C00000000000000000000000000000000005F
:10455C000000000000000000C001C001C001C0014B
:10456C00C001C001C001FFFFFFFFC001C001C001BD
:10457C00C001C001C00100000000000000000000EC
:10458C00000000000000000000000000000000001F
:10459C00000000000000000000000000000000000F
:1045AC000000E003E003E003E003E001E001E001D0
:1045BC00C0018003000000000000000000000000AB
:1045CC0000000000000000000000FE3FFE3F000065
:1045DC0000000000000000000000000000000000CF
:1045EC0000000000000000000000000000000000BF
:1045FC0000000000000000000000000000000000AF
:10460C0000000000000000000000E003E003E003F5
:10461C00E003000000000000000000000F000F008D
:10462C001E001E003C003C0078007800F000F000FA
:10463C00E001E001C003C00380078007000F000FFA
:10464C00001E001E003C003C0078007800F00000CA
:10465C00F007F80F7C1F3E3E1E3C1F7C1F7C0F7822
:10466C000F780F780F780F780F780F781F7C1F7CDE
:10467C001E3C3E3E7C1FF80FF007000000000000BF
:10468C0000000000F000F007F03FF03FF001F001F7
:10469C00F001F001F001F001F001F001F001F00186
:1046AC00F001F001F001F001F001FF3FFF3F0000CD
:1046BC000000000000000000E00FF83F7C3C3C00D4
:1046CC003E003E003E003C003C007C00F800F00147
:1046DC00E003C0078007000F001E003E003CFE3FB9
:1046EC00FE3F00000000000000000000F00FF81F6B
:1046FC007C1C3E003E003E003C003C00F800F00FED
:10470C00F80F7C003E001E001E001E001E003E0026
:10471C007C1CF81FE01F00000000000000000000DF
:10472C007800F800F800F801F803F807F807780F9C
:10473C00781E781E783C78787878FFFFFFFF780039
:10474C007800780078007800780000000000000005
:10475C0000000000FC1FFC1FFC1F001E001E001EA2
:10476C00001E001EE01FF81FFC007C003E003E00F7
:10477C001E003E003E003C007C1CF81FE01F0000A9
:10478C000000000000000000FC01FE078E0F001F5F
:10479C00001E003E003C003CF83DFC3F3E7F1F7E6F
:1047AC000F3C0F3C0F3C0F3C0F3E1F1E3E1FFC0FDF
:1047BC00F00300000000000000000000FF3FFF3F7E
:1047CC00FF3F0F001E001E003C0038007800F00078
:1047DC00F000E001E001C003C0038007800F800FF0
:1047EC00000F001F001F0000000000000000000070
:1047FC00F807FC0F3E1F1E1E1E3E1E3E1E1E3C1FBB
:10480C00F80FF007F80FFC1E3E3E1F3C1F7C0F7C80
:10481C000F7C1F3C3E3FFC1FF00700000000000017
:10482C0000000000F007F80F7C1E3E3C1E3C1F7C75
:10483C001F7C1F7C1F7C1F3C3F3EFF1FEF071F0090
:10484C001E001E003E003C00F838F03FE01F000048
:10485C00000000000000000000000000000000004C
:10486C0000000000E003E003E003E00300000000B0
:10487C0000000000000000000000E003E003E00383
:10488C00E003000000000000000000000000000039
:10489C000000000000000000E003E003E003E00380
:1048AC000000000000000000000000000000E00319
:1048BC00E003E003E003E001E001E001C00380035A
:1048CC0000000000000000000000000003000F00CA
:1048DC003F00FC00F003C00F003F00FE003FC00F84
:1048EC00F003FC003F000F0003000000000000007C
:1048FC0000000000000000000000000000000000AC
:10490C000000000000000000FFFFFFFF000000009F
:10491C000000FFFFFFFF000000000000000000008F
:10492C00000000000000000000000000000000007B
:10493C000000000000E000F8007E801FE007F80196
:10494C007E001F007E00F801E007801F007E00F84B
:10495C0000E000000000000000000000F01FFC3F21
:10496C003E381F381F381E001E003C007800F00037
:10497C00E001C003C003C007C00700000000000036
:10498C00C007C007C00700000000000000000000C6
:10499C00F803FE0F1E1F0F3E7F3CFF78EF79C773A5
:1049AC00C7F38FF38FF38FF39FF39FF3FF73FF7BAB
:1049BC00F779003C1C1FFC0FF803000000000000FE
:1049CC0000000000000000000000E003E003F0071E
:1049DC00F007F007780F780F7C0E3C1E3C1E3E3C17
:1049EC00FE3FFF3F1F780F780FF007F007F0000035
:1049FC000000000000000000000000000000F83F74
:104A0C00FC3F3E3C1E3C1E3C1E3C3E3C7C3CF03F76
:104A1C00F83F7E3C1F3C1F3C0F3C0F3C1F3CFE3FB5
:104A2C00F83F000000000000000000000000000043
:104A3C000000FF01FF07871F003E003C007C007850
:104A4C000078007800780078007C007C003E003F05
:104A5C00831FFF07FF0100000000000000000000A2
:104A6C00000000000000F07FFC7F7E781F781F782C
:104A7C000F780F780F780F780F780F780F780F78F2
:104A8C001F781E787E78F87FE07F00000000000021
:104A9C0000000000000000000000FF3FFF3F003E50
:104AAC00003E003E003E003E003EFE3FFE3F003E0C
:104ABC00003E003E003E003E003EFF3FFF3F000038
:104ACC000000000000000000000000000000FF1FBC
:104ADC00FF1F001E001E001E001E001E001EFF1FDA
:104AEC00FF1F001E001E001E001E001E001E001ECA
:104AFC00001E00000000000000000000000000008C
:104B0C000000FE03FF0F871F003E007C007C007836
:104B1C0000F800F87FF87FF80F780F7C0F7C0F3EC1
:104B2C008F1FFF0FFE0300000000000000000000BC
:104B3C000000000000001F7C1F7C1F7C1F7C1F7C62
:104B4C001F7C1F7C1F7CFF7FFF7F1F7C1F7C1F7CBB
:104B5C001F7C1F7C1F7C1F7C1F7C00000000000042
:104B6C0000000000000000000000FF3FFF3FE003DA
:104B7C00E003E003E003E003E003E003E003E00311
:104B8C00E003E003E003E003E003FF3FFF3F00002E
:104B9C000000000000000000000000000000FC1FEE
:104BAC00FC1F7C007C007C007C007C007C007C007A
:104BBC007C007C007C007C0078007800F838F03FAA
:104BCC00C03F0000000000000000000000000000DA
:104BDC0000001F3C1E3C3C3C783CF03CE03DE03F80
:104BEC00C03F803FC03FE03FF03DF03C783C7C3C18
:104BFC003E3C1F3C0F3C0000000000000000000089
:104C0C00000000000000003E003E003E003E003E62
:104C1C00003E003E003E003E003E003E003E003E98
:104C2C00003E003E003EFF3FFF3F00000000000042
:104C3C00000000000000000000001FF81FFC1FFC1B
:104C4C003FFE3FFE3FFE7FFF77FF77FFF7F7E7F76B
:104C5C00E7F3E7F3C7F307F007F007F007F00000FE
:104C6C0000000000000000000000000000000F7CAD
:104C7C000F7C0F7E0F7F0F7F8F7F8F7FCF7FEF7B20
:104C8C00EF79FF79FF78FF787F783F783F781F784E
:104C9C001F78000000000000000000000000000071
:104CAC000000F007FC1F3E3E1F7C0F780F780FF8BA
:104CBC000FF80FF80FF80FF80FF80F780F781F7C1C
:104CCC003E3EFC1FF007000000000000000000004A
:104CDC00000000000000FC3FFF3F1F3E0F3E0F3E58
:104CEC000F3E0F3E1F3E3F3EFC3FF03F003E003E5E
:104CFC00003E003E003E003E003E00000000000072
:104D0C0000000000000000000000F007FC1F3E3E09
:104D1C001F7C0F780F780FF80FF80FF80FF80FF8BB
:104D2C000FF80F780F781F7C3E3EFC1FF8077C00B5
:104D3C003F000F0003000000000000000000F03FE7
:104D4C00FC3F7E3C3E3C1E3C1E3C3E3C3C3CFC3C0A
:104D5C00F03FE03FF03DF83C7C3C3E3C1E3C1F3CB1
:104D6C000F3C0000000000000000000000000000EC
:104D7C000000FC07FE1F0E3E003C003C003C003EC9
:104D8C00C01FF80FFE037F001F000F000F001F2035
:104D9C003E3CFC3FF01F0000000000000000000043
:104DAC00000000000000FFFFFFFFE003E003E00352
:104DBC00E003E003E003E003E003E003E003E003CF
:104DCC00E003E003E003E003E00300000000000068
:104DDC00000000000000000000000F7C0F7C0F7C26
:104DEC000F7C0F7C0F7C0F7C0F7C0F7C0F7C0F7C5F
:104DFC000F7C0F7C1E3C1E3C3E3EFC1FF00700004F
:104E0C00000000000000000000000000000007F09F
:104E1C0007F007F80F780F7C1E3C1E3C1E3E3C1E14
:104E2C003C1F781F780FF80FF007F007F007E0032E
:104E3C00E003000000000000000000000000000083
:104E4C00000003E003F003F007F0E7F3E7F3E7F308
:104E5C00E773F77BF77FFF7F7F7F7F7F7E7F7E3FD0
:104E6C003E3E3E3E3E3E00000000000000000000C2
:104E7C0000000000000007F80F7C1E3E3E3E3C1F69
:104E8C00F80FF007E007E003E003F007F80F7C0FE2
:104E9C007C1E3E3C1F780F780FF0000000000000D5
:104EAC000000000000000000000007F807780F7CED
:104EBC001E3C1E3E3C1F780FF80FF007E003E0038A
:104ECC00E003E003E003E003E003E003E0030000A1
:104EDC000000000000000000000000000000FF7F48
:104EEC00FF7F0F001F003E007C00F800F000E00187
:104EFC00E003C007800F000F001E003E007CFF7F08
:104F0C00FF7F00000000000000000000FF0780078A
:104F1C00800780078007800780078007800780074D
:104F2C00800780078007800780078007800780073D
:104F3C0080078007800780078007FF07FF070000B6
:104F4C0000780078003C003C001E001E000F000F93
:104F5C0080078007C003C003E001E001F000F0000F
:104F6C00780078003C003C001E001E000F000F0073
:104F7C0007000000F07FF000F000F000F000F000FF
:104F8C00F000F000F000F000F000F000F000F00095
:104F9C00F000F000F000F000F000F000F000F00085
:104FAC00F000F07FF07F0000C000C001C001E00302
:104FBC00E003F007F0077807780F380F3C1E3C1E13
:104FCC001E3C1E3C0F380F780778000000000000D4
:104FDC0000000000000000000000000000000000C5
:104FEC0000000000000000000000000000000000B5
:104FFC0000000000000000000000000000000000A5
:10500C00000000000000FFFFFFFF00000000000098
:10501C00F000000000000000000000000000000094
:10502C000000000000000000000000000000000074
:10503C000000000000000000000000000000000064
:10504C000000000000000000000000000000000054
:10505C00F80FFC3F7C3C3E003E003E00FE07FE1F6E
:10506C003E3E3E7C3E783E7C7E7CFF3FCF1F000068
:10507C000000000000000000003C003C003C003C34
:10508C00003C003CF83DFE3F3E3F1F3E0F3C0F3CBA
:10509C000F3C0F3C0F3C0F3C1F3C1E3C3E3FFC3F6B
:1050AC00F03B0000000000000000000000000000C9
:1050BC000000000000000000FE03FF0F871F003EF1
:1050CC00003E003C007C007C007C003C003E003E2E
:1050DC00871FFF0FFE03000000000000000000000F
:1050EC001F001F001F001F001F001F00FF07FF1FD6
:1050FC003F3E1F3C1F7C1F7C1F7C1F781F781F7C32
:10510C001F7C3F3C7F3EFF1FDF0F000000000000B4
:10511C000000000000000000000000000000000083
:10512C00F803FC0F3E1F1E3E1F3C1F7CFF7FFF7FC2
:10513C00007C007C003C003E071FFF0FFE030000BC
:10514C000000000000000000FF01E103C003C007E5
:10515C00C007C007FF7FFF7FC007C007C007C0079D
:10516C00C007C007C007C007C007C007C007C007FB
:10517C00C00700000000000000000000000000005C
:10518C000000000000000000EF07FF1F7F3E1F3CE7
:10519C001F7C1F7C1F781F781F781F7C1F7C3F3C57
:1051AC007F3EFF1FDF0F1E001E001E007C38F83FE5
:1051BC00003C003C003C003C003C003CFC3DFE3F05
:1051CC009E3F1F3F1F3E1F3C1F3C1F3C1F3C1F3C74
:1051DC001F3C1F3C1F3C1F3C1F3C000000000000FC
:1051EC0000000000F001F0010000000000000000D1
:1051FC00E07FE07FE001E001E001E001E001E0019F
:10520C00E001E001E001E001E001E001E00100006B
:10521C000000000000000000F800F8000000000092
:10522C0000000000F83FF83FF800F800F800F80024
:10523C00F800F800F800F800F800F800F800F800A2
:10524C00F800F800F800F000F071E07F003C003C42
:10525C00003C003C003C003C1F3C3E3C7C3CF83C91
:10526C00F03DE03DC03FC03FE03FF03DF83C7C3CB2
:10527C003E3C1F3C1F3C00000000000000000000F2
:10528C00F07FF001F001F001F001F001F001F0010C
:10529C00F001F001F001F001F001F001F001F0017A
:1052AC00F001F001F001F001F0010000000000003D
:1052BC0000000000000000000000000000000000E2
:1052CC009EF7FFFFFFFFFFFFE7FBE7F9C7F1C7F111
:1052DC00C7F1C7F1C7F1C7F1C7F1C7F1C7F10000BA
:1052EC0000000000000000000000000000000000B2
:1052FC0000000000FC3DFE3F9E3F1F3F1F3E1F3C39
:10530C001F3C1F3C1F3C1F3C1F3C1F3C1F3C1F3CB9
:10531C001F3C000000000000000000000000000026
:10532C000000000000000000F007FC1F3E3E1F3C88
:10533C001F7C0F780F780F780F780F781F7C1F3C2D
:10534C003E3EFC1FF00700000000000000000000C3
:10535C00000000000000000000000000F83DFE3FCF
:10536C003E3F1F3E0F3C0F3C0F3C0F3C0F3C0F3C95
:10537C001F3C1E3E3E3FFC3FF83F003C003C003CC7
:10538C00003C003C00000000000000000000000099
:10539C00EE07FE1F7E3E1E3C1E7C1E781E781E787D
:1053AC001E781E781E7C3E7C7E3EFE1FDE0F1E008D
:1053BC001E001E001E001E00000000000000000069
:1053CC00000000007F1FFF1FE71FC71F871F001F64
:1053DC00001F001F001F001F001F001F001F001FC9
:1053EC00001F000000000000000000000000000092
:1053FC000000000000000000FC07FE1F0E1E003E17
:10540C00003E003FE01FFC07FE003E001E001E0099
:10541C003E3CFC3FF01F00000000000000000000BC
:10542C00000000000000800780078007FF7FFF7FDF
:10543C008007800780078007800780078007800728
:10544C0080078007C007FF03FF0100000000000079
:10545C000000000000000000000000000000000040
:10546C001E3C1E3C1E3C1E3C1E3C1E3C1E3C1E3C60
:10547C001E3C1E3C3E3C7E3CFE3EFE1FDE0F0000F2
:10548C000000000000000000000000000000000010
:10549C000000000007F00F780F781E3C1E3C1E3EEB
:1054AC003C1E3C1E780F780FF00FF007F007E0035E
:1054BC00E0030000000000000000000000000000FD
:1054CC00000000000000000003F0E3F1E3F3E7F359
:1054DC00F7F3F7F3F77F777F7F7F7F7F7F7F3E3E0A
:1054EC003E3E3E3E3E3E000000000000000000003C
:1054FC000000000000000000000000000F7C1E3EB9
:10550C003C3E3C1FF80FF007F007E003F007F807EC
:10551C00F80F7C1E3E3E1F3C1F7800000000000070
:10552C00000000000000000000000000000000006F
:10553C0007F80F780F7C1E3C1E3C3C1E3C1E3C1F8B
:10554C00780FF80FF007F007E003E003C003C00387
:10555C00C0038007800F007F0000000000000000E7
:10556C0000000000FF3FFF3F1F003E007C00F800E2
:10557C00F001E003C007800F001F001E003CFF7FFE
:10558C00FF7F00000000000000000000FE01E003AF
:10559C00C003C003C003C003E001E001E001C0018F
:1055AC00C003803F803FC003C001E001E001E00187
:1055BC00C003C003C003C003E003FE017E00000073
:1055CC00C001C001C001C001C001C001C001C001C7
:1055DC00C001C001C001C001C001C001C001C001B7
:1055EC00C001C001C001C001C001C001C001C001A7
:1055FC00C0010000C03FE003E001E001E001E00178
:10560C00C001C003C003C001E001FE00FE00E001C8
:10561C00C001C003C003C001E001E001E001E001F2
:10562C00E003C03F003F000000000000000000004D
:10563C000000000000000000000000000000073F18
:10564C00C77FE773FFF17EF0000000000000000050
:10565C00000000000000000000000000000000003E
:10566C000021000000210000000008200040002064
:10567C000001084100000000004000000800080084
:10568C0008020000080008000000080000000800E4
:10569C000800080010420000000000200000084133
:1056AC000000000008210000000008400000082055
:1056BC0000000000080000000000082008000000A6
:1056CC0000000000000000000000000008020000C4
:1056DC0000000002000200010000080008000000A9
:1056EC00000000000800000008210001080008214B
:1056FC000000000000000000080008000841000045
:10570C000000002000000000000100010820000043
:10571C0000600000100008000000002008000020BD
:10572C0000000000080008000000002000400000FD
:10573C00002100000060006000001000002000004C
:10574C000820000000001000080000000800000005
:10575C000020000008000800104200000861FFDF74
:10576C00F7BEFFFFF7BDCE77F79BFFBBFFFBE6F95C
:10577C00D637C5B5C5B4F779F799FFBAFFDAEF3864
:10578C00BDB4C5F4EF58F798F758FF9AE718C5F46D
:10579C00C5D3DE96D655FFBAF7B9F7D9F7B9F7994D
:1057AC00F79AF799F799FFDAFFDAF7B9FFBAF79991
:1057BC00FFBAFFBAFFB9FFBAF799FFDAFFBAFFBA1F
:1057CC00FFBAFFBAFFB9FFB9FFB9FFBAF77AFFFA10
:1057DC00CE749CB1AD54C5D4DEB6FF9AFFBAF7991E
:1057EC00FFB9FFB9F7B9FFDAEF58BDF3F77AFFDB72
:1057FC00FFFBFFDAFFDAEF58EF58FFFBF799FFDA00
:10580C00FFDAF7B9FFFADEF7BDF4EF59FFBCF7BBCF
:10581C00F7FCF7BBF75AFF7BFFFCF7BBF77BE73ACC
:10582C00BE15CE36FF7CF73AFFBCFFFCCE58C5D573
:10583C00F75AFFDDF79CB5759410A450B431C41120
:10584C00CC93BC92BC72CC72CC72BC92C472BC9223
:10585C00BCF4ACB2B4D3C5769CB308620000FFFFB5
:10586C00FFFFF79DC636E6F7FFB9FF97FF57DE340B
:10587C00DE36B4F0CDB1FF76FF76FFD7F757D653AF
:10588C009C8DCE32FFB6F754F775FFB7D633ACCE3E
:10589C00C5B1CDF2E6B4FFF8FFD7FFF7FFF7FFD79E
:1058AC00FFD7FFB7FFB6FFF7FFD7FFB6FFB7EF5530
:1058BC00FFD7FFD7FFB6FFD7FFB6FFD7FFB7FFD78E
:1058CC00FFD7FFB7FFB7FFB6FFB7FFD7FF97FFF7BD
:1058DC00E7348C4D83CD9CAED653EED5FFD7FFD796
:1058EC00FF96FFD6FFB6FFF7FFB6D692BDB0EF36E8
:1058FC00FFF9F776FFB6F755E6F4EF36FFF8F775D4
:10590C00FFF7FFD7FFD7F776BDD0BDD1FF38FFDA51
:10591C00FFFBFFFAE736EF36FFD8FFD8FFB9FFFBE6
:10592C00BDD2BD92DE35FF79FFB9F7F9F73CBD72F8
:10593C00DE54FF58FFDDE69A8BAE832BBB2ECAEEEE
:10594C00CB2EBB2EBB4EC30ED32EC32ECB0EBB2EDB
:10595C00B3AFABEFA410B4F4AD1400001061F79E1C
:10596C00FFFFF79DA531FFFAFFB7FFD6FF35CD70CE
:10597C00BCD09C0CDE34FF36FF96FF56F6D7B4EF46
:10598C009C2CF716FF76E6B2F735E6B4A44EACAF16
:10599C00D5F3D613FF77FF77F755FFB7F776FFD719
:1059AC00FFB7FF96FFB6FF96FF77FFB8E6D4EF156B
:1059BC00FF96FF96FF76FF96FF76FF96FF76FF76B3
:1059CC00FF96FF76FF76FF76FF76FF76FFB7F795AB
:1059DC00F7967BAC5208832BB4CFD5D3FF56FF97E9
:1059EC00FF55FF95FF75FF96FF96FFB7AD0EBD9067
:1059FC00F716FF76FFB6FF96EF15CDF2FF56FF7642
:105A0C00F735FFB7FF76FF97F757A4ADCD71F717B2
:105A1C00FFD9FFF9E736DEB3E6D4FFD8F7B8FFF9C4
:105A2C00F778ACAEC530E613FF98EF56FFDCD654D2
:105A3C00A48CC570FF19FFBDC5946288B2CCC28C12
:105A4C00BA2AAA4AB2CBB24AC26BB24ACA4BBA6B96
:105A5C009A6A9B2D9B8E9C30A4F300610000FFFF83
:105A6C00FFDFFFFEAD51F757F734FFB4D5AFD5B11B
:105A7C0093EC83ABA48EBD70E6B5EEB6E6568B8B7D
:105A8C00A46EFF57EEB3F6F3FF97BD308B6BBD11D1
:105A9C00C571F6F6FF76FF97FF56FF56EED4FF96CC
:105AAC00FF75FF75FF96FF76FF98FF57DE51FF5687
:105ABC00FF96FF76FF96FF96FF96FF76FF97FF7691
:105ACC00FF96FF76FF96FF76FF76F714FF35FFB54E
